:020000040800F2
:100000008007002089010008951A0008551600088D
:10001000931A000829050008FF1A000800000000D4
:10002000000000000000000000000000991A000815
:100030004505000800000000971A00089B1A0008F8
:10004000A3010008A3010008A3010008A301000800
:10005000A3010008A3010008A3010008A3010008F0
:10006000A3010008A3010008A3010008A3010008E0
:10007000A3010008A30100082D05000839050008A8
:10008000A3010008A3010008A3010008A3010008C0
:10009000A3010008A3010008A3010008A3010008B0
:1000A000A3010008A3010008A3010008A3010008A0
:1000B000A3010008A3010008A3010008A301000890
:1000C000A3010008A3010008A3010008A301000880
:1000D000A3010008A3010008A3010008A301000870
:1000E000A3010008A3010008A301000800F002F822
:1000F00000F03AF80AA090E8000C82448344AAF188
:100100000107DA4501D100F02FF8AFF2090EBAE885
:100110000F0013F0010F18BFFB1A43F0010318473B
:10012000E022000000230000103A24BF78C878C104
:10013000FAD8520724BF30C830C144BF04680C60ED
:10014000704700000023002400250026103A28BF35
:1001500078C1FBD8520728BF30C148BF0B60704739
:100160001FB51FBD10B510BD00F08AF81146FFF78E
:10017000F7FF01F0D5FC00F0A8F803B4FFF7F2FF99
:1001800003BC00F0AFF80000094880470948004769
:10019000FEE7FEE7FEE7FEE7FEE7FEE7FEE7FEE737
:1001A000FEE7FEE704480549054A064B7047000094
:1001B000FD1A0008ED0000088001002080070020E3
:1001C000800300208003002010B5203AC0F00B808F
:1001D000B1E81850203AA0E81850B1E81850A0E84B
:1001E0001850BFF4F5AF5FEA027C24BFB1E81850A5
:1001F000A0E8185044BF18C918C0BDE810405FEA15
:10020000827C24BF51F8043B40F8043B08BF704790
:10021000D20728BF31F8023B48BF11F8012B28BF95
:1002200020F8023B48BF00F8012B70474FF0000256
:1002300000B5134694469646203922BFA0E80C50DC
:10024000A0E80C50B1F12001BFF4F7AF090728BFB7
:10025000A0E80C5048BF0CC05DF804EB890028BF33
:1002600040F8042B08BF704748BF20F8022B11F05C
:10027000804F18BF00F8012B7047704770477047D8
:10028000754600F02BF8AE4605006946534620F04F
:100290000700854618B020B5FFF784FFBDE8204071
:1002A0004FF000064FF000074FF000084FF0000B32
:1002B00021F00701AC46ACE8C009ACE8C009ACE8E5
:1002C000C009ACE8C0098D46704710B50446AFF3CD
:1002D00000802046BDE81040FFF74FBF0048704740
:1002E0002001002001491820ABBEFEE726000200D5
:1002F000704700000EB54FF0FF338DE80E00024648
:10030000034801235021006800F07AFC0EBD000074
:100310000000002003B583B04FF0FF33012204A991
:100320008DE80E001346024603485021006800F095
:100330008FFD05B000BD000000000020F0B589B0C1
:100340000E460746202913D0062269463046FFF79D
:10035000D1FF00242546082E15D00E2E10D0142EC5
:100360000ED01A2E0CD0282E0DD02E2E0BD00CE035
:10037000082269463046FFF7BDFF00243D4D04E0EA
:1003800000243D4D01E03D4D00241C2102A8FFF753
:100390004DFF202E2AD0BDF900001A2E4AD001F0C0
:1003A000C9FD22462B4601F06DFC01F039FC03909B
:1003B000BDF9020001F0BEFD22462B4601F062FCB1
:1003C00001F02EFC0490BDF9040000BF01F0B2FD65
:1003D00022462B4601F056FC01F022FC05901C221F
:1003E00002A93846FFF7F0FE09B0F0BDBDF90000E4
:1003F00001F0A0FD22462B4601F044FC01F010FC68
:100400000290BDF9020001F095FD22462B4601F055
:1004100039FC01F005FC0390BDF9040001F08AFDF0
:1004200022462B4601F02EFC01F0FAFB0490BDF9A8
:100430000600CBE701F07EFD22462B4601F022FCB0
:1004400001F0EEFB0890BDF9020001F073FD2246B9
:100450002B4601F017FC01F0E3FB0790BDF9040007
:1004600001F068FD22462B4601F00CFC01F0D8FBA0
:100470000690B4E70000D040000030400000594032
:100480001A21FFF75BBF00002DE9F04393B08046CF
:1004900000244FF4FA660BA8FFF7F2FF1C220BA909
:1004A00003A8FFF791FE3846079901F0AFFD074614
:1004B0004846089901F0AAFD81462846099901F0AD
:1004C000A5FD641C0546B442E5DB0B4E38463146BB
:1004D00001F0FEFD04463146484601F0F9FD0746AD
:1004E0003146284601F0F4FDC8E90047C8F8080085
:1004F00013B0BDE8F08300000000FA44094910B5CC
:10050000086000213F20FFF705FF00213B20FFF797
:1005100001FF00213D20FFF7FDFEBDE810406420F3
:1005200000F0ECB800000020FEE70000014800F0F9
:100530000DB8000098000020014800F007B8000046
:10054000DC000020704772B6FEE700002DE9F05F86
:10055000C16B0C6801680B68D0F840C0042202FA35
:100560000CF2494DDFF824A1494E4A4FDFF828B17B
:10057000DFF828E122422CD05A072AD50A689206D1
:1005800003D40A6822F004020A600168A94201D17A
:10059000042219E0514501D1402215E0B14202D1B7
:1005A0004FF4806210E0B94202D14FF480420BE078
:1005B000594502D14FF4802206E0714502D14FF433
:1005C000800201E04FF080622F4908394A60C16A19
:1005D0003BE04FF0020808FA0CF818EA040F4FF05D
:1005E00000094FF0010235D05FEA837832D50B68FD
:1005F0009B0605D40B6823F00A030B6080F82120CA
:100600000168A94201D1022219E0514501D12022FD
:1006100015E0B14202D14FF4007210E0B94202D1AC
:100620004FF400520BE0594502D14FF4003206E07E
:10063000714502D14FF4001201E04FF000721249EF
:1006400008394A6080F82090816A00291AD0BDE8F4
:10065000F05F0847082505FA0CF5254212D01B0764
:1006600010D50B6823F00E030B6090F84010C36B9D
:1006700002FA01F15960826380F8212080F820900D
:10068000016BE2E7BDE8F09F080002401C00024059
:100690003000024044000240580002406C0002401A
:1006A00030B528B308C8134914221944B1FBF2F13C
:1006B0008900C16310498163022141771A6843F6BA
:1006C000F0718A43D0E900142143D0E902452C435C
:1006D000214304692143446921438469214311432F
:1006E000196000214163012242770177084630BD3D
:1006F000012030BDF8FFFDBF0000024070B5044688
:1007000000F0FEF80546601C02D00448007804445E
:1007100000F0F6F8401BA042FAD370BD0C00002098
:100720002DE9F84FDFF8B8910024A9F1040B234616
:100730000F2709F1040AABF1040EC9E00125A54019
:100740002A40AA427DD1674ED1F804C0ACEB06081E
:10075000B44532D014DCBCF1030F3AD009DCBCF153
:10076000000F2AD0BCF1010F1CD0BCF1020F31D117
:100770001DE0BCF1110F17D0BCF1120F2AD119E006
:10078000B8F5881F19D006DCB8F5803F15D0B8F54C
:10079000801F1FD111E0B8F5001F0ED0B8F5041F5F
:1007A00018D10AE0CB6815E0CB681B1D12E0CB68BE
:1007B00008330FE0CB680C330CE08B682BB1012BB6
:1007C0004FF0080303D0456104E0042302E0056113
:1007D00000E00023FF2A01D8064601E000F10406EC
:1007E0004FEA840501D9A5F12005D6F8008007FA63
:1007F00005FC28EA0C0803FA05F548EA0508C6F8DE
:1008000000804D68ED0062D5374DAE6946F00106B7
:10081000AE61AD6924F0030605F001050095334D86
:1008200006EB050CDCF80850A607360F07FA06F8A9
:1008300025EA0805DFF8B880404503D14FF00008ED
:1008400017E044E0DFF8AC80404502D14FF00108EA
:100850000FE0DFF8A480404502D14FF0020808E025
:10086000DFF89880404502D14FF0030801E04FF0D7
:10087000040808FA06F848EA0508CCF808804D682C
:10088000D9F80060ED024D4601D5164300E09643CD
:100890002E604D68DAF80060AD02554601D516436A
:1008A00000E096432E604D68DBF80060AD035D46C6
:1008B00001D5164300E096432E604D68DEF80060D7
:1008C000ED03754601D5164300E096432E60641C87
:1008D0000D682A46E5407FF431AFBDE8F88F00008F
:1008E0000804014000001110001002400000014007
:1008F00000080140000C01400010014000140140BC
:1009000001488068704700000C00002070B50400AA
:1009100025D094F83D00002520B984F83C502046AD
:1009200000F02EFB242084F83D002068016821F0AF
:10093000010101602068016841F400410160206804
:10094000016821F40041016000F0AAFC4D4A616891
:10095000914201D84C4900E04C49884201D2012023
:1009600070BD4B492368B0FBF1F15E6826F03F068D
:100970000E435E606368934206D94FF49673594301
:100980004FF47A73B1FBF3F12368491C1E6A26F019
:100990003F06314319626168914210D84900401EF8
:1009A000B0FBF1F2521CC2F30B02042A01D2042064
:1009B00022E0B0FBF1F0401CC0F30B001CE0A26889
:1009C000F2B301EBC10303EB0116431EB3FBF6F3D5
:1009D0005B1C43F480431B0549D092B301EBC10279
:1009E00002EB0111401EB0FBF1F0401CC0F30B0004
:1009F00040F4804040F400402168CA694CF6FF731F
:100A00009A431043C861D4E9071001432068026883
:100A100022F0C00211430160D4E9030101432068C0
:100A2000826848F2FF339A4311438160D4E905019B
:100A300008432168CA6822F0FF021043C86001E041
:100A40000EE016E02068016841F0010101602564B4
:100A5000202084F83D00256384F83E50002070BDBE
:100A600001EB4106431EB3FBF6F35B1CB3E7012029
:100A7000C2E701EB4101401EB0FBF1F0401CC0F3A6
:100A80000B00B7E7A086010080841E0000093D002E
:100A900040420F002DE9FF4F81B089460446FFF721
:100AA0002FFF054694F83D004FF0000820287DD127
:100AB0001923012250492046009500F0E1FE00284C
:100AC00074D194F83C00012870D0012084F83C00D7
:100AD00020680168C90703D1016841F00101016084
:100AE0002068016821F400610160242084F83D0041
:100AF000002626644148E0624FF0011B2027206851
:100B0000016841F480710160009500225946204639
:100B1000049B00F0B5FE50B120680068C00502D506
:100B20004FF400702064032005B0BDE8F08F216809
:100B300009F0FE000861FFF7E3FE216805464869F9
:100B40004969C0F34000C1F380214FF0A00A0FE0D3
:100B5000FFF7D6FE411B0498814200D808B984F8FB
:100B60003DA0216848694969C0F34000C1F3802174
:100B700094F83D20A02A02D008B90029E8D084F8D2
:100B80003D7020684169C943890716D4016841F462
:100B900000710160206841698069192301221649AA
:100BA0002046009500F06CFEB8B900E021E084F822
:100BB0003D7084F83C600020B6E7016841F40071A4
:100BC000016021686FF480604861192301220A499D
:100BD0002046009500F054FE08B10120A4E70398D8
:100BE00008F1010880458AD384F83D7084F83C60A0
:100BF000F3E7022098E70000020010000000FFFF6A
:100C00002DE9FF4F83B00025DDE910799A46934620
:100C10000446DDF848800095FFF772FE064694F81A
:100C20003D0020287CD119230122854920460096C9
:100C300000F026FE0028F5D194F83C0001286FD082
:100C4000012084F83C0020680168C90703D10168CD
:100C500041F0010101602068016821F40061016038
:100C6000222084F83D00402084F83E00256467621D
:100C7000A4F82A90608D20857248E062CDE9008654
:100C800053465A462046049900F0FCFC00287DD1CA
:100C9000208DDFF8B491202768B1012814D00228F4
:100CA000206801681ED041F48061016020684169BC
:100CB00080690090B6E0206841698169009101680F
:100CC00041F400710160ADE02068016821F48061A9
:100CD000016072B62068416981690091016841F440
:100CE00000710AE041F40061016072B62068416958
:100CF00081690091016821F48061016062B691E030
:100D0000032868D801280CD0022843464FF000027F
:100D10004946204600960FD000F0B2FDB0BB10E06F
:100D20008BE032464146204600F050FE70BB206802
:100D30000069616A08706CE000F0A2FD30BB72B619
:100D400034E02068016821F48061016072B6206897
:100D50000069616A0870606A401C6062208D401EF4
:100D60002085608D401E6085384846F2A8110068D5
:100D7000B0FBF1F0C0EBC00000EB80000090401E23
:100D8000009008D020684069C04300E029E0400797
:100D90000CD50098F3E744F8305F6773A5732069BA
:100DA00040F02000206162B625731AE020680168D7
:100DB00041F40071016020680069616A0870606A2E
:100DC000401C6062218D491E2185618D491E61850F
:100DD00062B621681BE032464146204600F0F6FD2F
:100DE00018B1012007B0BDE8F08F20680069616A82
:100DF0000870606A401C6062218D491E2185618DEA
:100E0000491E618521684A69D24352070AD409699B
:100E10000170606A401C6062208D401E2085608DDC
:100E2000401E6085208D00287FF46AAF84F83D70F5
:100E300084F83E5084F83C50D4E70220D2E700000A
:100E4000020010000000FFFF040001001800002055
:100E50002DE9FF4F83B09A46DDE91197934604468A
:100E6000DDF84080FFF74CFD054694F83D00202852
:100E70007FD11923012240492046009500F000FD52
:100E8000002876D194F83C00012872D0012084F823
:100E90003C0020680168C90703D1016841F00101E5
:100EA00001602068016821F400610160212084F85C
:100EB0003D00402084F83E0000262664C4F82480CB
:100EC000A4F82A90608D20852C48E062CDE9007559
:100ED00053465A462046049900F052FC70B930E05F
:100EE0002A463946204600F0A9FD58B1206C042856
:100EF00004D12068016841F400710160012007B04D
:100F0000BDE8F08F606A216800780861606A401C63
:100F10006062218D491E89B22185628D521E6285D3
:100F200022685369DB435B070BD469B10078106119
:100F3000606A401C6062208D401E2085608D401ECE
:100F40006085208D0028CBD12A463946204600F006
:100F50006BFC0028CAD154F83D0B016841F40071C4
:100F60000160202004F81E09E67766770020C6E7B6
:100F7000FFE70220C3E70000020010000000FFFFAF
:100F80002DE9F04186B000240646009401940294B5
:100F9000039400682549884244D1254DA86940F052
:100FA0000800A861A869694600F0080004904FF4A1
:100FB0004060009012200190032003901D48FFF72D
:100FC000AFFBE86940F48000E861E8691B4D00F47C
:100FD0008000049018484FF0800801C51020A5E853
:100FE0001101470245F8104914486C61C5E90647EC
:100FF000FFF756FB08B1FFF7A6FA75636E620E485D
:101000000F4D1430C5E90004C5E902482C616C613C
:10101000C5E906472846FFF743FB08B1FFF793FAF7
:10102000B5636E6206B0BDE8F08100000058004074
:1010300000100240000C01404400024098000020D3
:10104000DC0000200248816802781144816070470A
:101050000C000020074810B5016841F01001016044
:10106000032000F075F80F2000F006F800F024F8D7
:10107000002010BD0020024070B50D4D04464FF415
:101080007A712878B1FBF0F00A490968B1FBF0F0F9
:1010900000F0CCFA48B9102C07D200222146501E8D
:1010A00000F036F800206C6070BD012070BD0000BB
:1010B0000C000020180000200C4808B5816941F0A0
:1010C00001018161816901F001010091C16941F073
:1010D0008051C161C06900F08050009004484168AF
:1010E00021F0E06141F00071416008BD0010024054
:1010F00000000140002809DB00F01F02012191409F
:101100004009800000F1E020C0F8001170470000A5
:10111000F0B40E4B1B680C46C3F30223C3F1070562
:10112000042D00D90425191D072901D2002300E050
:10113000DB1E012606FA05F1491E214099409E401A
:10114000761E16403143F0BC00F0DABC0CED00E036
:10115000064900F0070208684FF6FF03184040EA0E
:101160000220034A10430860704700000CED00E0C5
:101170000000FA052DE9F0470F46050061D0434E07
:10118000306800F00700B84209D2306820F007004C
:1011900038433060306800F00700B84251D1286809
:1011A0003B4C810712D5400703D5606840F4E060EE
:1011B00060602878000703D5606840F46050606084
:1011C0006068A96820F0F000084360602878C007D4
:1011D00028D06868012810D02168022810D089071B
:1011E00000292EDA616821F0030101436160FFF7F5
:1011F00087FB804641F288390DE021688903EFE7DB
:101200008901EDE7FFF77CFBA0EB0801494502D916
:101210000320BDE8F0876068696800F00C00B0EB5F
:10122000810FEFD1306800F00700B8420BD9306869
:1012300020F0070038433060306800F00700B84203
:1012400001D00120E5E72878400705D56068E96806
:1012500020F4E060084360602878000706D56068E5
:10126000296920F4605040EAC100606000F028F86D
:101270006168084AC1F30311515CC840064908601F
:1012800006480068FFF7F8FE0020C2E70020024091
:1012900000100240E8230008180000201000002081
:1012A0000448054900684968044AC1F30221515CB9
:1012B000C84070471800002000100240F8230008C2
:1012C0000E4A51680E4801F00C03042B11D0082B74
:1012D0000FD10C48C1F38343C903C05C0AD55168E0
:1012E000084AC1F34041921E515C054A5043B0FB8D
:1012F000F1F0704704494843704700000010024075
:1013000000127A00D823000800093D002DE9F84FAB
:10131000040070D02078C04DC00749D06868C0F381
:101320008100012807D06868C0F38100022809D134
:101330006868C00306D52868800339D5606800282E
:10134000E7D035E06068B0F5803F0BD010B1B0F564
:10135000A02F11D0286820F480302860286820F45D
:10136000802002E0286840F480302860606890B1F6
:10137000FFF7C6FA06460AE0286840F48020286095
:10138000F0E700BFFFF7BCFA801B642873D8286819
:101390008003F7D50CE0FFF7B3FA064605E000BF7F
:1013A000FFF7AEFA801B6428F0D828688003F7D4D2
:1013B00020789A4E80074FF001094FF0000839D588
:1013C000686810F00C0F07D06868C0F3810002282D
:1013D00009D16868C00306D42868800714D520693D
:1013E000012808D110E02069B0B1C6F80090FFF7DD
:1013F00087FA074605E00AE1FFF782FAC01B0228D8
:10140000C4D828688007F7D52868616920F0F800FB
:1014100040EAC10028600DE0C6F80080FFF770FACE
:10142000074604E0FFF76CFAC01B022823D828689F
:101430008007F7D4207800072CD57948A169D9B165
:10144000C0F80090FFF75CFA074604E0FFF758FA8F
:10145000C01B02280FD8686A8007F7D571484FF47F
:10146000FA510068B0FBF1F0009000BF0098411EF7
:101470000091FAD20EE080E0C0F80080FFF740FA59
:10148000074604E0FFF73CFAC01B022875D8686ADB
:101490008007F7D42078400760D5E8690027C000AE
:1014A00008D4E86940F08050E861E869012700F05D
:1014B000805000905C480168C90513D401688346D8
:1014C00041F480710160FFF71BFA824606E000BF1D
:1014D000FFF716FAA0EB0A0064284ED8DBF80000EC
:1014E000C005F5D5E06801280AD008B1052813D059
:1014F000286A20F001002862286A20F0040002E037
:10150000286A40F001002862E06841F2883B98B107
:10151000FFF7F6F982460BE0286A40F004002862E3
:10152000EEE700BFFFF7ECF9A0EB0A0159455AD8E6
:10153000286A8007F6D50CE0FFF7E2F9824605E05D
:10154000FFF7DEF9A0EB0A0159454CD8286A80075D
:10155000F6D41FB1E86920F08050E861E06988B3F3
:101560006968C1F38101022944D00228C6F860806D
:1015700004D0FFF7C5F9044638E034E0FFF7C0F9BE
:10158000074604E0FFF7BCF9C01B02282BD82868E7
:101590008001F7D4206AB0F5803F05D16868A16862
:1015A00020F4003008436860D4E908010843696802
:1015B00021F4741108436860C6F86090FFF7A0F941
:1015C000044606E025E000BFFFF79AF9001B022859
:1015D00009D828688001F7D51BE000BFFFF790F914
:1015E000001B022802D90320BDE8F88F286880017B
:1015F000F4D40EE00128F7D06868226A00F4803144
:10160000914204D1616A00F47010884201D0012037
:10161000EAE70020E8E70000001002400000424234
:1016200080044242180000200070004010B5401EA7
:10163000B0F1807F01D3012010BD4FF0E024606144
:101640000F21601700F05CFA0020A06107202061E4
:10165000002010BDFEE701684A69D24352050FD44D
:101660006FF480624A61002140F8301F20224273EB
:101670008173026942F00402026101730120704724
:10168000002070472DE9F84F0446006889460B9DFD
:1016900001689846174641F480610160206801683E
:1016A00041F48071016000954FF0011B0022594602
:1016B00020460A9B00F0E4F84FF4007A40B120681D
:1016C0000068C00501D5C4F840A00320BDE8F88F2C
:1016D000216809F0FE0008612B46284920460A9A35
:1016E00000F016F9F0BB20684169806900902A4635
:1016F00020460A9900F0A2F940B1206C04283AD1A2
:101700002068016841F40071016034E0FEB2B8F174
:10171000010F09D02168380A08612A4620460A9933
:1017200000F08CF90028E8D1206806612A4620469E
:101730000A9900F083F90028DFD12068016841F49C
:101740008071016000950022594620460A9B00F0F6
:1017500097F80028B3D1216809F0FF0040F001009C
:10176000086100E007E02B46044920460A9A00F091
:10177000CFF80028AAD00120A8E70000020001004D
:101780002DE9F843044600680D46DDE90897016835
:101790009846164641F4807101604B4600224FF096
:1017A00001112046009700F06BF848B120680068EE
:1017B000C00502D54FF4007020640320BDE8F88313
:1017C000216805F0FE0008613B464A46154920465F
:1017D00000F09EF888B920684169806900903A4617
:1017E0004946204600F02AF948B1206C042804D16B
:1017F0002068016841F4007101600120DEE7F5B264
:10180000B8F1010F09D02168300A08613A4649460B
:10181000204600F013F90028E7D120680561002078
:10182000CCE700000200010070B516460D460446E4
:101830001EE02046FFF70FFF08B1012070BD681CB5
:1018400016D0FFF75DF8801BA84200D885B9206844
:101850004069C04340070BD5002044F8300F2021D9
:101860006173A073216941F0200121612073E4E7D5
:1018700020684069C0434007DBD4002070BD0000F1
:101880002DE9F047984617460D460446C1F3074632
:10189000DDF820902AE000BFB8F1FF3F26D0FFF727
:1018A0002FF8A0EB0901414502D8B8F1000F1DD176
:1018B0002068012E16D0806925EA00000004000C83
:1018C00012D00020B84211D1002044F8300F20215E
:1018D0006173A073216941F020012161207301200F
:1018E000BDE8F0874069E7E70120EBE72068012EBB
:1018F0000AD0806925EA00000004000C06D0002010
:10190000B842C9D00020EBE74069F3E70120F7E7D0
:101910002DE9F047984616460D4604464FF000095B
:101920004FF0200AC1F3074723E020684069C04315
:10193000400515D42068016841F4007101602168F8
:101940006FF480604861C4F8309084F83DA084F85A
:101950003E90216C41F00401216484F83C9021E028
:10196000701C06D0FEF7CCFFA0EB0800B04203D8F5
:1019700016B1012F1FD021E02068012F15D08069FA
:1019800025EA00000004000C18D000BF44F8309F86
:1019900084F80DA084F80E90216941F020012161A6
:1019A00084F80C900120BDE8F087406925EA00002A
:1019B0000004000CEAD12068406901E020688069D9
:1019C00025EA00000004000CAFD1ECE72DE9F0415E
:1019D000002590460E460446202728E04069C04373
:1019E000C0060CD454F8301B6FF01000486144F866
:1019F00010596777A577206A2062257714E0FEF7F3
:101A00007FFFA0EB0800B04200D886B9206840698B
:101A1000C04340060BD544F8305F6773A573206957
:101A200040F02000206125730120BDE8F08120688E
:101A30004169C9434906D1D40020F6E770B516467E
:101A40000D4604461EE02046FFF705FE08B10120C2
:101A500070BD681C16D0FEF753FF801BA84200D84B
:101A600085B920684069C04300060BD5002044F8C2
:101A7000300F20216173A073216941F020012161A1
:101A80002073E4E720684069C0430006DBD40020EF
:101A900070BDFEE7FEE770477047FFF7D3BA30B579
:101AA0008FB028216846FEF7C1FB14210AA8FEF773
:101AB000BDFB01210804CDE9001000240294022599
:101AC0000491CDE907504FF4E01009906846FFF704
:101AD0001DFC08B172B6FEE70F20CDE90A054FF4F0
:101AE0008060CDE90C4002210AA80E94FFF742FB6A
:101AF000002801D072B6FEE70FB030BD7047FEE798
:101B00000907090E002804DB00F1E02080F800142A
:101B1000704700F00F0000F1E02080F8141D7047BE
:101B200088B0FFF797FAFFF7BAFF3848816941F0AC
:101B300020018161816901F020010091816941F0FA
:101B400008018161816901F008010091816941F01A
:101B500004018161816901F004010091416941F052
:101B6000010141614069002200F00100009011462E
:101B70000E20FFF7CDFA0E20FFF7BCFA0022114627
:101B80000F20FFF7C5FA0F20FFF7B4FA21482049CC
:101B90004FF4804201602049416000218160C0E92A
:101BA000031241618161C1610162FEF7AFFE08B1BC
:101BB00072B6FEE7194C0A2060601648FEF79EFCDC
:101BC000C8230A2250211348FEF764FFD8B1FF2032
:101BD000207008213D20FEF79DFB1420FEF78EFDAE
:101BE0006846FEF751FC0B489DE80E00703080E817
:101BF0000E006846FEF744FC06481C226946543035
:101C0000FEF7E2FAF5E70120E2E7000000100240EB
:101C1000005800401C000020801A0600040000202C
:101C200021F00042A2F16052B2F5801F01F00043A2
:101C300028BFD2F17F6C0BD95FEA001C43EAC202D5
:101C400042EB507018BF704728BF20F0010070476A
:101C5000B2F5801FBCBF184670474FEA410C1CF517
:101C6000001F02D2084600F03BBB70B500F079F9C6
:101C700000000089FFF7F6BF4FF00040A0F580009C
:101C8000704700002DE9C04130B4DFF8A0C23CEA43
:101C9000111418BF3CEA131400F0EC8081EA03052C
:101CA0001CEA111444EAD57418BF1CEA131500F09D
:101CB000C780A4EB05044FF0004545EAC12145EA81
:101CC000C32341EA505143EA525304F17F749942CD
:101CD00004F500344FEAC0204FEAC22208BF904208
:101CE00000F09C804FEA13650FF24016765D4FEAD4
:101CF000134506FB05F7C7F1807706FB07F74FEAA8
:101D0000D737A7FB03687642C8F58038A7FB06CE15
:101D100038BFA8F1010807FB08E64FF0000EA6FB4C
:101D2000028CE6FB03CEDCF1000CCEF1004E38BF96
:101D3000AEF1010EA6FB0C584FF000074FF0000566
:101D4000E6FB0E87A1FB08C6A0FB07CE16EB0E062E
:101D500045F10005E1FB076515F1E04E7EBFA4F5F6
:101D600080345FEA46066D4116F1800745F10005B3
:101D70004FEA17274FEA066647EA0567A6F1DE46EF
:101D8000B6F1805F4FEA15251FD9384624F0010CC3
:101D900005EBC471BCF1FE6F01EB0C1102D8F0BC75
:101DA000BDE8008124425CBF01F5801E9EEAC47F2D
:101DB00002D4F0BCBDE80081244238D4F0BCA1F1CB
:101DC000C041BDE8004100F01AB94FEAD22242EA10
:101DD00043524FEAD323A7FB02864FEAD02040EAC2
:101DE000415007FB03661EEA0E0F4FEAD12105FBA7
:101DF000026658BFA6EB0056B6EB00564FEA520EED
:101E00004EEAC37E18EB0E0E56EB530EBDD518EB03
:101E100002085E417F1C55F10005B6E74FF48015BE
:101E20004FF000074FF000064FF00008ADE7F0BCA0
:101E30004FF0000001F1C04101F00041BDE8008118
:101E400011EA0C1F0CEA131500D00CE013EA0C1F6A
:101E500000F025804FF00000F0BC81EA030101F0A2
:101E60000041BDE80081F0BCBDE8004181EA03010A
:101E700000F0C5B8F0BCBDE8004170B500F071F8E5
:101E8000097EFC3E00F007B881EA03014FF0000034
:101E900001F00041704781EA030100F0B0B8F0BCE6
:101EA000BDE800414FF0000021497047FFFDFBF9FC
:101EB000F7F5F4F2F0EEEDEBE9E8E6E4E3E1E0DE7D
:101EC000DDDBDAD8D7D5D4D3D1D0CFCDCCCBCAC8EF
:101ED000C7C6C5C4C2C1C0BFBEBDBCBBBAB9B8B716
:101EE000B6B5B4B3B2B1B0AFAEADACABAAA9A8A809
:101EF000A7A6A5A4A3A3A2A1A09F9F9E9D9C9C9BD7
:101F00009A99999897979695959493939291919081
:101F10008F8F8E8E8D8C8C8B8B8A89898888878712
:101F20008685858484838382828181800000FF0787
:101F30000000F87F10F0004248BF4042B0FA80F342
:101F400010FA03F10AD0C3F11D0303F580634FEAD1
:101F5000415002EB035202EBD12170474FF00000D9
:101F600070470EF1020E2EF0030E5EF8046B36423F
:101F700005D4012A43EB030515F5001F12D80128EB
:101F800041EB010C1CF5001F0CD80ED14FEAD17C9F
:101F900015F5001F0CEB4C0C0CF1020C08BF4CEBC0
:101FA000D37C04E04FF0080C01E04FEAD37C0CEB4B
:101FB0004C0526FA05F606F00706B6F1040C06D223
:101FC0000EEB860CBDE870404CF0010C6047DFE87A
:101FD0000CF0090B02024FF000414FF00000A1F598
:101FE000002170BD19461046012851EB010418BFAD
:101FF000D4F5001484BF002001F0004170BD080832
:10200000A0F500114FEA31017047000090EA010F7E
:1020100048BF81F0004100F17081421A3CBF801A34
:1020200089184FEAD0524FF07F4C1CEA410FA2EBC7
:10203000D15318BF9CEA026F00F03B804FF0004C78
:102040004CEA00204CEA012121FA03FC10EB0C0CB5
:102050001ED202F1FF325FEA1C2040EBC25038BFB3
:1020600070471CF07F0F4FEA400C18BFBCF17F4F48
:1020700038BF7047C3F12003994008BF20F001002A
:10208000BCF17F4F38BF7047A0F1C04000F028B9C5
:102090004FEA3C00000A40EBC25028BF1CF0FF0F83
:1020A0004FEA400CE6D018BFBCF17F4F38BF7047F5
:1020B000EAE79CEA026F05D010EA5C0F08BF00F067
:1020C0000040704710B500F0C5F800BF64FBBE3E8D
:1020D0004FF47F0C1CEAD0121EBF1CEAD11392EA07
:1020E0000C0F93EA0C0F00F0858090EA010F48BFB7
:1020F00042F4807240F4000C41F400002CF07F4167
:1021000020F07F4000B58142A2EB03020FF2081CD1
:10211000ACEB504EC0F100009EF800E04FEA4E0ECE
:1021200000FB0EFC38BF49004FEA2C1C02F5FA02F6
:102130000CFB0EF34FEACE1E4FEA112C4FEAC121E1
:102140000EEB635E42EB22420EFB0CFC4FEA1C538B
:1021500000FB03114FEA112C4FEA01310EFB0CFC7E
:102160004FEADC4C00FB0C11C14228BF09184CEBB4
:1021700003335DF804EB10EB410143EBC250B2F5C1
:102180007C0F38BF704729D512F0F00F1CBF00F14B
:10219000C04000F0004070470081828384858687BC
:1021A00088898B8C8D8E8F919293959697999A9C16
:1021B0009D9FA0A2A3A5A7A8AAACAEB0B2B3B5B785
:1021C000B9BCBEC0C2C5C7C9CCCED1D4D7D9DCDF5B
:1021D000E2E6E9ECF0F3F7FAFE0000004FEA400C0B
:1021E0000CF1807CBCF17E4F28BF7047B0F1C0403D
:1021F00000F076B890EA010F0CEAD11348BF42F420
:102200008072624538BF634507D213F47F0F16D042
:1022100080EA010000F00040704710B500F01AF8A5
:10222000097EFC3E00F005B880EA010000F00040A5
:10223000704780EA010000F0004000F051B812F44D
:102240007F0F04BF0248704780EA010000F048B8E1
:102250000000C07F0EF1020E2EF0030E5EF8044B5C
:10226000244204D44FEA4102B2F17F4F11D84FEA21
:102270004003B3F17F4F0CD80ED14FEAD07CB2F1BE
:102280007F4F0CEB4C0C0CF1020C08BF4CEBD17CDB
:1022900004E04FF0080C01E04FEAD17C0CEB4C035A
:1022A00024FA03F404F00704B4F1040C06D20EEB94
:1022B000840CBDE810404CF0010C6047DFE80CF0E6
:1022C000070802024FF00040A0F5800010BD08464C
:1022D000420018BFD2F1807288BF00F0004010BDEC
:1022E000FF2141EAD050C0057047000090EA010F7D
:1022F00048BF81F000413FF590AE421A04D882F009
:102300000042A0EB020011444FEAD0524FF07F4C44
:102310001CEA410FA2EBD15318BF9CEA026F4AD0CE
:102320004FF0004C4CEA00204CEA012121FA03FC5A
:10233000B0EB0C0C0FD412F0FE0F36D05FEA4C005D
:102340001DD5001240EBC25038BF70471CF03F0F44
:1023500018BF70470BE0A2F101025FEA1C2040EBBE
:10236000C25038BF70471CF07F0F18BF7047C3F1D1
:102370002003994014BF401E20F0010070478008E0
:102380004FEA122308BF7047B0FA80FCA2EB0C02A0
:10239000CCF1280C60FA0CF093EA122F04BF00EB8A
:1023A000C25070474FEAC3707047130A5FEADC10EF
:1023B00008BF7047F6E79CEA026F04D010EA5C0F92
:1023C00008BF0020704710B5FFF744FF40DFF63E1E
:1023D00081F0004070470102020304050607080966
:1023E0000A0B0C0D0E0F1010000000000000000082
:1023F00001020304060708090000000001020304AB
:1024000020240008000000201C0000002801000813
:102410003C2400081C000020640700004401000860
:1024200000000000000000000000000001000000AB
:0C24300010000000000000000024F40078
:04000005080000ED02
:00000001FF
